:10000000830100308A00042883010330AD00E7300B
:10001000AC00123084002B300F208301912BAB00F9
:100020001A208000840A04082B06031900341028C3
:100030008312AC00AD1B23282D088A002C08AC0AC3
:100040000319AD0A820083132D1883172C08AC0AFC
:0600500084000008080016
:10072200831685018601B72B0830831285001308D2
:1007320086008C018C0A8D018312B9230430850056
:10074200140886008C018C0A8D01B92302308500C1
:10075200150886008C018C0A8D01B92301308500B1
:10076200160886008C018C0A8D01B923952B04286A
:100772000C088E000D088F000F080E04031DC22BFB
:10078200C32BC42BE52B6E3083129000910111080C
:100792001004031DCD2BCE2BCF2BDA2B8312900806
:1007A20003199103900311081004031DD92BDA2BAE
:1007B200CF2B83128E0803198F038E030F080E04AA
:1007C200031DE42BE52BC42B83120800C034F9343B
:1007D200A434B034993492348234F834803490346E
:1007E20088348334C634A13486348E348934C73491
:0E07F200C834C1348C34A334BF34FF34FF3418
:02400E00F53F7C
:00000001FF
