:10000000830100308A0004280C30840014300D2055
:100010008301BD2B04068001840A0406031D0A28FF
:1000200000348207493420344C346F3476346534DC
:10003000203479346F3475342134003482074434E9
:100040007534443475342034443475344434753450
:0200500000347A
:1006C000051086008D0005308E008F018F230515E3
:1006D00005308E008F018F23051183120800051449
:1006E00086008D0005308E008F018F2305150530A3
:1006F0008E008F018F230511831208008316850158
:10070000860183120511383060230E3060230630D5
:1007100060230130602390306023831208000E08AC
:1007200090000F08910011081004031D982B992BBD
:100730009A2BBB2B6E308312920093011308120484
:10074000031DA32BA42BA52BB02B831292080319F6
:100750009303920313081204031DAF2BB02BA52B98
:100760008312900803199103900311081004031DCC
:10077000BA2BBB2B9A2B831208007E238C01CC2B27
:1007800000308A0083120C081E2083126F2314305D
:100790008E008F018F238C0A093083120C02031CF8
:1007A000D22BD32BC02BD030831260238C01E42BAF
:1007B00000308A0083120C08112083126F2314303A
:1007C0008E008F018F238C0A0B3083120C02031CC6
:1007D000EA2BEB2BD82B83128C01F62B18308312CB
:1007E0006023C8308E008F018F238C0A1030831253
:1007F0000C02031CFC2BFD2BEE2BFE2BFE2B0428E6
:00000001FF
