:0C000000830100308A0004288301B12B2A
:1007620083168601013083128600C8308D008E0107
:10077200D2238C0108300C02031CC02BC12BC22BCC
:10078200D12B03108312860DC8308D008E01831287
:10079200D2238C0A08300C02031CD02BD12BC22B83
:1007A20004280D088F000E08900010080F04031D86
:1007B200DB2BDC2BDD2BFE2B6E30831291009201A2
:1007C20012081104031DE62BE72BE82BF32B8312EF
:1007D200910803199203910312081104031DF22BCD
:1007E200F32BE82B83128F08031990038F03100851
:0E07F2000F04031DFD2BFE2BDD2B83120800D0
:02400E00F53F7C
:00000001FF
