:10000000830100308A000428830103309800FC300B
:1000100097001230840016300F208301A62B960023
:100020001A208000840A04081606031900341028D8
:1000300083129700981B232818088A001708970A2C
:100040000319980A82008313181883171708970A50
:0600500084000008080016
:10074C00831685018601CC2B073083128500120895
:10075C0086008C018C0A8D018312CE230B30850010
:10076C00130886008C018C0A8D01CE230D30850078
:10077C00140886008C018C0A8D01CE230E30850066
:10078C00150886008C018C0A8D01CE23AA2B042817
:10079C000C088E000D088F000F080E04031DD72BBC
:1007AC00D82BD92BFA2B83129001900A91011108A6
:1007BC001004031DE22BE32BE42BEF2B8312900888
:1007CC0003199103900311081004031DEE2BEF2B5A
:1007DC00E42B83128E0803198F038E030F080E046B
:1007EC00031DF92BFA2BD92B83120800C034F934D2
:0407FC00A434B0343D
:00000001FF
