:0C000000830100308A0004288301C02B1B
:1007800083168601D02BFF30831286008C018C0AE1
:100790008D018312D22386018C018C0A8D01D22314
:1007A000C32B04280C088E000D088F000F080E04C0
:1007B000031DDB2BDC2BDD2BFE2B02308312900084
:1007C000910111081004031DE62BE72BE82BF32BF6
:1007D0008312900803199103900311081004031D5C
:1007E000F22BF32BE82B83128E0803198F038E0351
:1007F0000F080E04031DFD2BFE2BDD2B83120800BA
:00000001FF
